10232322302202600000100000110000000000000000000000000000000000000000
207510001006662100022796001089778500 Pago TEC                     00
300010001218284200000001001089778500 Orden de Pago Num:105625     00
40000021795570000000224946IJKACSFCCI00000000000000000000000000000000
